{
  "contractName": "ERC721Token",
  "abi": [
    {
      "anonymous": false,
      "inputs": [
        {
          "indexed": true,
          "name": "_from",
          "type": "address"
        },
        {
          "indexed": true,
          "name": "_to",
          "type": "address"
        },
        {
          "indexed": false,
          "name": "_tokenId",
          "type": "uint256"
        }
      ],
      "name": "Transfer",
      "type": "event"
    },
    {
      "anonymous": false,
      "inputs": [
        {
          "indexed": true,
          "name": "_owner",
          "type": "address"
        },
        {
          "indexed": true,
          "name": "_approved",
          "type": "address"
        },
        {
          "indexed": false,
          "name": "_tokenId",
          "type": "uint256"
        }
      ],
      "name": "Approval",
      "type": "event"
    },
    {
      "constant": true,
      "inputs": [],
      "name": "totalSupply",
      "outputs": [
        {
          "name": "",
          "type": "uint256"
        }
      ],
      "payable": false,
      "stateMutability": "view",
      "type": "function"
    },
    {
      "constant": true,
      "inputs": [
        {
          "name": "_owner",
          "type": "address"
        }
      ],
      "name": "balanceOf",
      "outputs": [
        {
          "name": "",
          "type": "uint256"
        }
      ],
      "payable": false,
      "stateMutability": "view",
      "type": "function"
    },
    {
      "constant": true,
      "inputs": [
        {
          "name": "_owner",
          "type": "address"
        }
      ],
      "name": "tokensOf",
      "outputs": [
        {
          "name": "",
          "type": "uint256[]"
        }
      ],
      "payable": false,
      "stateMutability": "view",
      "type": "function"
    },
    {
      "constant": true,
      "inputs": [
        {
          "name": "_tokenId",
          "type": "uint256"
        }
      ],
      "name": "ownerOf",
      "outputs": [
        {
          "name": "",
          "type": "address"
        }
      ],
      "payable": false,
      "stateMutability": "view",
      "type": "function"
    },
    {
      "constant": true,
      "inputs": [
        {
          "name": "_tokenId",
          "type": "uint256"
        }
      ],
      "name": "approvedFor",
      "outputs": [
        {
          "name": "",
          "type": "address"
        }
      ],
      "payable": false,
      "stateMutability": "view",
      "type": "function"
    },
    {
      "constant": false,
      "inputs": [
        {
          "name": "_to",
          "type": "address"
        },
        {
          "name": "_tokenId",
          "type": "uint256"
        }
      ],
      "name": "transfer",
      "outputs": [],
      "payable": false,
      "stateMutability": "nonpayable",
      "type": "function"
    },
    {
      "constant": false,
      "inputs": [
        {
          "name": "_to",
          "type": "address"
        },
        {
          "name": "_tokenId",
          "type": "uint256"
        }
      ],
      "name": "approve",
      "outputs": [],
      "payable": false,
      "stateMutability": "nonpayable",
      "type": "function"
    },
    {
      "constant": false,
      "inputs": [
        {
          "name": "_tokenId",
          "type": "uint256"
        }
      ],
      "name": "takeOwnership",
      "outputs": [],
      "payable": false,
      "stateMutability": "nonpayable",
      "type": "function"
    }
  ],
  "bytecode": "0x608060405234801561001057600080fd5b50610e20806100206000396000f30060806040526004361061008e576000357c0100000000000000000000000000000000000000000000000000000000900463ffffffff168063095ea7b31461009357806318160ddd146100e05780632a6dd48f1461010b5780635a3f2672146101785780636352211e1461021057806370a082311461027d578063a9059cbb146102d4578063b2e6ceeb14610321575b600080fd5b34801561009f57600080fd5b506100de600480360381019080803573ffffffffffffffffffffffffffffffffffffffff1690602001909291908035906020019092919050505061034e565b005b3480156100ec57600080fd5b506100f56104e1565b6040518082815260200191505060405180910390f35b34801561011757600080fd5b50610136600480360381019080803590602001909291905050506104ea565b604051808273ffffffffffffffffffffffffffffffffffffffff1673ffffffffffffffffffffffffffffffffffffffff16815260200191505060405180910390f35b34801561018457600080fd5b506101b9600480360381019080803573ffffffffffffffffffffffffffffffffffffffff169060200190929190505050610527565b6040518080602001828103825283818151815260200191508051906020019060200280838360005b838110156101fc5780820151818401526020810190506101e1565b505050509050019250505060405180910390f35b34801561021c57600080fd5b5061023b600480360381019080803590602001909291905050506105be565b604051808273ffffffffffffffffffffffffffffffffffffffff1673ffffffffffffffffffffffffffffffffffffffff16815260200191505060405180910390f35b34801561028957600080fd5b506102be600480360381019080803573ffffffffffffffffffffffffffffffffffffffff16906020019092919050505061063c565b6040518082815260200191505060405180910390f35b3480156102e057600080fd5b5061031f600480360381019080803573ffffffffffffffffffffffffffffffffffffffff16906020019092919080359060200190929190505050610688565b005b34801561032d57600080fd5b5061034c600480360381019080803590602001909291905050506106db565b005b6000813373ffffffffffffffffffffffffffffffffffffffff16610371826105be565b73ffffffffffffffffffffffffffffffffffffffff1614151561039357600080fd5b61039c836105be565b91508173ffffffffffffffffffffffffffffffffffffffff168473ffffffffffffffffffffffffffffffffffffffff16141515156103d957600080fd5b60006103e4846104ea565b73ffffffffffffffffffffffffffffffffffffffff1614158061041e575060008473ffffffffffffffffffffffffffffffffffffffff1614155b156104db57836002600085815260200190815260200160002060006101000a81548173ffffffffffffffffffffffffffffffffffffffff021916908373ffffffffffffffffffffffffffffffffffffffff1602179055508373ffffffffffffffffffffffffffffffffffffffff168273ffffffffffffffffffffffffffffffffffffffff167f8c5be1e5ebec7d5bd14f71427d1e84f3dd0314c0f7b2291e5b200ac8c7c3b925856040518082815260200191505060405180910390a35b50505050565b60008054905090565b60006002600083815260200190815260200160002060009054906101000a900473ffffffffffffffffffffffffffffffffffffffff169050919050565b6060600360008373ffffffffffffffffffffffffffffffffffffffff1673ffffffffffffffffffffffffffffffffffffffff1681526020019081526020016000208054806020026020016040519081016040528092919081815260200182805480156105b257602002820191906000526020600020905b81548152602001906001019080831161059e575b50505050509050919050565b6000806001600084815260200190815260200160002060009054906101000a900473ffffffffffffffffffffffffffffffffffffffff169050600073ffffffffffffffffffffffffffffffffffffffff168173ffffffffffffffffffffffffffffffffffffffff161415151561063357600080fd5b80915050919050565b6000600360008373ffffffffffffffffffffffffffffffffffffffff1673ffffffffffffffffffffffffffffffffffffffff168152602001908152602001600020805490509050919050565b803373ffffffffffffffffffffffffffffffffffffffff166106a9826105be565b73ffffffffffffffffffffffffffffffffffffffff161415156106cb57600080fd5b6106d6338484610706565b505050565b6106e5338261084f565b15156106f057600080fd5b6107036106fc826105be565b3383610706565b50565b600073ffffffffffffffffffffffffffffffffffffffff168273ffffffffffffffffffffffffffffffffffffffff161415151561074257600080fd5b61074b816105be565b73ffffffffffffffffffffffffffffffffffffffff168273ffffffffffffffffffffffffffffffffffffffff161415151561078557600080fd5b8273ffffffffffffffffffffffffffffffffffffffff166107a5826105be565b73ffffffffffffffffffffffffffffffffffffffff161415156107c757600080fd5b6107d18382610890565b6107db8382610979565b6107e58282610bfe565b8173ffffffffffffffffffffffffffffffffffffffff168373ffffffffffffffffffffffffffffffffffffffff167fddf252ad1be2c89b69c2b068fc378daa952ba7f163c4a11628f55a4df523b3ef836040518082815260200191505060405180910390a3505050565b60008273ffffffffffffffffffffffffffffffffffffffff16610871836104ea565b73ffffffffffffffffffffffffffffffffffffffff1614905092915050565b8173ffffffffffffffffffffffffffffffffffffffff166108b0826105be565b73ffffffffffffffffffffffffffffffffffffffff161415156108d257600080fd5b60006002600083815260200190815260200160002060006101000a81548173ffffffffffffffffffffffffffffffffffffffff021916908373ffffffffffffffffffffffffffffffffffffffff16021790555060008273ffffffffffffffffffffffffffffffffffffffff167f8c5be1e5ebec7d5bd14f71427d1e84f3dd0314c0f7b2291e5b200ac8c7c3b925836040518082815260200191505060405180910390a35050565b60008060008473ffffffffffffffffffffffffffffffffffffffff1661099e856105be565b73ffffffffffffffffffffffffffffffffffffffff161415156109c057600080fd5b600460008581526020019081526020016000205492506109f260016109e48761063c565b610d6c90919063ffffffff16565b9150600360008673ffffffffffffffffffffffffffffffffffffffff1673ffffffffffffffffffffffffffffffffffffffff16815260200190815260200160002082815481101515610a4057fe5b9060005260206000200154905060006001600086815260200190815260200160002060006101000a81548173ffffffffffffffffffffffffffffffffffffffff021916908373ffffffffffffffffffffffffffffffffffffffff16021790555080600360008773ffffffffffffffffffffffffffffffffffffffff1673ffffffffffffffffffffffffffffffffffffffff16815260200190815260200160002084815481101515610aed57fe5b90600052602060002001819055506000600360008773ffffffffffffffffffffffffffffffffffffffff1673ffffffffffffffffffffffffffffffffffffffff16815260200190815260200160002083815481101515610b4957fe5b9060005260206000200181905550600360008673ffffffffffffffffffffffffffffffffffffffff1673ffffffffffffffffffffffffffffffffffffffff168152602001908152602001600020805480919060019003610ba99190610da3565b5060006004600086815260200190815260200160002081905550826004600083815260200190815260200160002081905550610bf16001600054610d6c90919063ffffffff16565b6000819055505050505050565b60008073ffffffffffffffffffffffffffffffffffffffff166001600084815260200190815260200160002060009054906101000a900473ffffffffffffffffffffffffffffffffffffffff1673ffffffffffffffffffffffffffffffffffffffff16141515610c6d57600080fd5b826001600084815260200190815260200160002060006101000a81548173ffffffffffffffffffffffffffffffffffffffff021916908373ffffffffffffffffffffffffffffffffffffffff160217905550610cc88361063c565b9050600360008473ffffffffffffffffffffffffffffffffffffffff1673ffffffffffffffffffffffffffffffffffffffff168152602001908152602001600020829080600181540180825580915050906001820390600052602060002001600090919290919091505550806004600084815260200190815260200160002081905550610d616001600054610d8590919063ffffffff16565b600081905550505050565b6000828211151515610d7a57fe5b818303905092915050565b6000808284019050838110151515610d9957fe5b8091505092915050565b815481835581811115610dca57818360005260206000209182019101610dc99190610dcf565b5b505050565b610df191905b80821115610ded576000816000905550600101610dd5565b5090565b905600a165627a7a72305820c0cd29606c4181fa25027bfbdcd740836bdf1fffa60d4579a77271d5cc923e500029",
  "source": "pragma solidity ^0.4.18;\n\nimport \"./ERC721.sol\";\nimport \"../../math/SafeMath.sol\";\n\n/**\n * @title ERC721Token\n * Generic implementation for the required functionality of the ERC721 standard\n */\ncontract ERC721Token is ERC721 {\n  using SafeMath for uint256;\n\n  // Total amount of tokens\n  uint256 private totalTokens;\n\n  // Mapping from token ID to owner\n  mapping (uint256 => address) private tokenOwner;\n\n  // Mapping from token ID to approved address\n  mapping (uint256 => address) private tokenApprovals;\n\n  // Mapping from owner to list of owned token IDs\n  mapping (address => uint256[]) private ownedTokens;\n\n  // Mapping from token ID to index of the owner tokens list\n  mapping(uint256 => uint256) private ownedTokensIndex;\n\n  /**\n  * @dev Guarantees msg.sender is owner of the given token\n  * @param _tokenId uint256 ID of the token to validate its ownership belongs to msg.sender\n  */\n  modifier onlyOwnerOf(uint256 _tokenId) {\n    require(ownerOf(_tokenId) == msg.sender);\n    _;\n  }\n\n  /**\n  * @dev Gets the total amount of tokens stored by the contract\n  * @return uint256 representing the total amount of tokens\n  */\n  function totalSupply() public view returns (uint256) {\n    return totalTokens;\n  }\n\n  /**\n  * @dev Gets the balance of the specified address\n  * @param _owner address to query the balance of\n  * @return uint256 representing the amount owned by the passed address\n  */\n  function balanceOf(address _owner) public view returns (uint256) {\n    return ownedTokens[_owner].length;\n  }\n\n  /**\n  * @dev Gets the list of tokens owned by a given address\n  * @param _owner address to query the tokens of\n  * @return uint256[] representing the list of tokens owned by the passed address\n  */\n  function tokensOf(address _owner) public view returns (uint256[]) {\n    return ownedTokens[_owner];\n  }\n\n  /**\n  * @dev Gets the owner of the specified token ID\n  * @param _tokenId uint256 ID of the token to query the owner of\n  * @return owner address currently marked as the owner of the given token ID\n  */\n  function ownerOf(uint256 _tokenId) public view returns (address) {\n    address owner = tokenOwner[_tokenId];\n    require(owner != address(0));\n    return owner;\n  }\n\n  /**\n   * @dev Gets the approved address to take ownership of a given token ID\n   * @param _tokenId uint256 ID of the token to query the approval of\n   * @return address currently approved to take ownership of the given token ID\n   */\n  function approvedFor(uint256 _tokenId) public view returns (address) {\n    return tokenApprovals[_tokenId];\n  }\n\n  /**\n  * @dev Transfers the ownership of a given token ID to another address\n  * @param _to address to receive the ownership of the given token ID\n  * @param _tokenId uint256 ID of the token to be transferred\n  */\n  function transfer(address _to, uint256 _tokenId) public onlyOwnerOf(_tokenId) {\n    clearApprovalAndTransfer(msg.sender, _to, _tokenId);\n  }\n\n  /**\n  * @dev Approves another address to claim for the ownership of the given token ID\n  * @param _to address to be approved for the given token ID\n  * @param _tokenId uint256 ID of the token to be approved\n  */\n  function approve(address _to, uint256 _tokenId) public onlyOwnerOf(_tokenId) {\n    address owner = ownerOf(_tokenId);\n    require(_to != owner);\n    if (approvedFor(_tokenId) != 0 || _to != 0) {\n      tokenApprovals[_tokenId] = _to;\n      Approval(owner, _to, _tokenId);\n    }\n  }\n\n  /**\n  * @dev Claims the ownership of a given token ID\n  * @param _tokenId uint256 ID of the token being claimed by the msg.sender\n  */\n  function takeOwnership(uint256 _tokenId) public {\n    require(isApprovedFor(msg.sender, _tokenId));\n    clearApprovalAndTransfer(ownerOf(_tokenId), msg.sender, _tokenId);\n  }\n\n  /**\n  * @dev Mint token function\n  * @param _to The address that will own the minted token\n  * @param _tokenId uint256 ID of the token to be minted by the msg.sender\n  */\n  function _mint(address _to, uint256 _tokenId) internal {\n    require(_to != address(0));\n    addToken(_to, _tokenId);\n    Transfer(0x0, _to, _tokenId);\n  }\n\n  /**\n  * @dev Burns a specific token\n  * @param _tokenId uint256 ID of the token being burned by the msg.sender\n  */\n  function _burn(uint256 _tokenId) onlyOwnerOf(_tokenId) internal {\n    if (approvedFor(_tokenId) != 0) {\n      clearApproval(msg.sender, _tokenId);\n    }\n    removeToken(msg.sender, _tokenId);\n    Transfer(msg.sender, 0x0, _tokenId);\n  }\n\n  /**\n   * @dev Tells whether the msg.sender is approved for the given token ID or not\n   * This function is not private so it can be extended in further implementations like the operatable ERC721\n   * @param _owner address of the owner to query the approval of\n   * @param _tokenId uint256 ID of the token to query the approval of\n   * @return bool whether the msg.sender is approved for the given token ID or not\n   */\n  function isApprovedFor(address _owner, uint256 _tokenId) internal view returns (bool) {\n    return approvedFor(_tokenId) == _owner;\n  }\n\n  /**\n  * @dev Internal function to clear current approval and transfer the ownership of a given token ID\n  * @param _from address which you want to send tokens from\n  * @param _to address which you want to transfer the token to\n  * @param _tokenId uint256 ID of the token to be transferred\n  */\n  function clearApprovalAndTransfer(address _from, address _to, uint256 _tokenId) internal {\n    require(_to != address(0));\n    require(_to != ownerOf(_tokenId));\n    require(ownerOf(_tokenId) == _from);\n\n    clearApproval(_from, _tokenId);\n    removeToken(_from, _tokenId);\n    addToken(_to, _tokenId);\n    Transfer(_from, _to, _tokenId);\n  }\n\n  /**\n  * @dev Internal function to clear current approval of a given token ID\n  * @param _tokenId uint256 ID of the token to be transferred\n  */\n  function clearApproval(address _owner, uint256 _tokenId) private {\n    require(ownerOf(_tokenId) == _owner);\n    tokenApprovals[_tokenId] = 0;\n    Approval(_owner, 0, _tokenId);\n  }\n\n  /**\n  * @dev Internal function to add a token ID to the list of a given address\n  * @param _to address representing the new owner of the given token ID\n  * @param _tokenId uint256 ID of the token to be added to the tokens list of the given address\n  */\n  function addToken(address _to, uint256 _tokenId) private {\n    require(tokenOwner[_tokenId] == address(0));\n    tokenOwner[_tokenId] = _to;\n    uint256 length = balanceOf(_to);\n    ownedTokens[_to].push(_tokenId);\n    ownedTokensIndex[_tokenId] = length;\n    totalTokens = totalTokens.add(1);\n  }\n\n  /**\n  * @dev Internal function to remove a token ID from the list of a given address\n  * @param _from address representing the previous owner of the given token ID\n  * @param _tokenId uint256 ID of the token to be removed from the tokens list of the given address\n  */\n  function removeToken(address _from, uint256 _tokenId) private {\n    require(ownerOf(_tokenId) == _from);\n\n    uint256 tokenIndex = ownedTokensIndex[_tokenId];\n    uint256 lastTokenIndex = balanceOf(_from).sub(1);\n    uint256 lastToken = ownedTokens[_from][lastTokenIndex];\n\n    tokenOwner[_tokenId] = 0;\n    ownedTokens[_from][tokenIndex] = lastToken;\n    ownedTokens[_from][lastTokenIndex] = 0;\n    // Note that this will handle single-element arrays. In that case, both tokenIndex and lastTokenIndex are going to\n    // be zero. Then we can make sure that we will remove _tokenId from the ownedTokens list since we are first swapping\n    // the lastToken to the first position, and then dropping the element placed in the last position of the list\n\n    ownedTokens[_from].length--;\n    ownedTokensIndex[_tokenId] = 0;\n    ownedTokensIndex[lastToken] = tokenIndex;\n    totalTokens = totalTokens.sub(1);\n  }\n}\n",
  "sourcePath": "/truffle/contracts/zeppelin/contracts/token/ERC721/ERC721Token.sol",
  "compiler": {
    "name": "solc",
    "version": "0.4.24+commit.e67f0147.Emscripten.clang"
  },
  "schemaVersion": "2.0.1",
  "updatedAt": "2018-06-26T20:55:14.138Z"
}