{
  "contractName": "PresaleFundCollector",
  "abi": [
    {
      "constant": true,
      "inputs": [],
      "name": "weiMinimumLimit",
      "outputs": [
        {
          "name": "",
          "type": "uint256"
        }
      ],
      "payable": false,
      "stateMutability": "view",
      "type": "function"
    },
    {
      "constant": true,
      "inputs": [
        {
          "name": "",
          "type": "address"
        }
      ],
      "name": "balances",
      "outputs": [
        {
          "name": "",
          "type": "uint256"
        }
      ],
      "payable": false,
      "stateMutability": "view",
      "type": "function"
    },
    {
      "constant": true,
      "inputs": [
        {
          "name": "",
          "type": "uint256"
        }
      ],
      "name": "investors",
      "outputs": [
        {
          "name": "",
          "type": "address"
        }
      ],
      "payable": false,
      "stateMutability": "view",
      "type": "function"
    },
    {
      "constant": true,
      "inputs": [],
      "name": "freezeEndsAt",
      "outputs": [
        {
          "name": "",
          "type": "uint256"
        }
      ],
      "payable": false,
      "stateMutability": "view",
      "type": "function"
    },
    {
      "constant": true,
      "inputs": [],
      "name": "MAX_INVESTORS",
      "outputs": [
        {
          "name": "",
          "type": "uint256"
        }
      ],
      "payable": false,
      "stateMutability": "view",
      "type": "function"
    },
    {
      "constant": true,
      "inputs": [],
      "name": "owner",
      "outputs": [
        {
          "name": "",
          "type": "address"
        }
      ],
      "payable": false,
      "stateMutability": "view",
      "type": "function"
    },
    {
      "constant": true,
      "inputs": [],
      "name": "crowdsale",
      "outputs": [
        {
          "name": "",
          "type": "address"
        }
      ],
      "payable": false,
      "stateMutability": "view",
      "type": "function"
    },
    {
      "constant": true,
      "inputs": [],
      "name": "moving",
      "outputs": [
        {
          "name": "",
          "type": "bool"
        }
      ],
      "payable": false,
      "stateMutability": "view",
      "type": "function"
    },
    {
      "constant": true,
      "inputs": [
        {
          "name": "",
          "type": "address"
        }
      ],
      "name": "earlyParticipantWhitelist",
      "outputs": [
        {
          "name": "",
          "type": "bool"
        }
      ],
      "payable": false,
      "stateMutability": "view",
      "type": "function"
    },
    {
      "constant": true,
      "inputs": [],
      "name": "investorCount",
      "outputs": [
        {
          "name": "",
          "type": "uint256"
        }
      ],
      "payable": false,
      "stateMutability": "view",
      "type": "function"
    },
    {
      "constant": false,
      "inputs": [
        {
          "name": "newOwner",
          "type": "address"
        }
      ],
      "name": "transferOwnership",
      "outputs": [],
      "payable": false,
      "stateMutability": "nonpayable",
      "type": "function"
    },
    {
      "inputs": [
        {
          "name": "_owner",
          "type": "address"
        },
        {
          "name": "_freezeEndsAt",
          "type": "uint256"
        },
        {
          "name": "_weiMinimumLimit",
          "type": "uint256"
        }
      ],
      "payable": false,
      "stateMutability": "nonpayable",
      "type": "constructor"
    },
    {
      "payable": true,
      "stateMutability": "payable",
      "type": "fallback"
    },
    {
      "anonymous": false,
      "inputs": [
        {
          "indexed": false,
          "name": "investor",
          "type": "address"
        },
        {
          "indexed": false,
          "name": "value",
          "type": "uint256"
        }
      ],
      "name": "Invested",
      "type": "event"
    },
    {
      "anonymous": false,
      "inputs": [
        {
          "indexed": false,
          "name": "investor",
          "type": "address"
        },
        {
          "indexed": false,
          "name": "value",
          "type": "uint256"
        }
      ],
      "name": "Refunded",
      "type": "event"
    },
    {
      "anonymous": false,
      "inputs": [
        {
          "indexed": false,
          "name": "addr",
          "type": "address"
        },
        {
          "indexed": false,
          "name": "status",
          "type": "bool"
        }
      ],
      "name": "Whitelisted",
      "type": "event"
    },
    {
      "anonymous": false,
      "inputs": [
        {
          "indexed": true,
          "name": "previousOwner",
          "type": "address"
        },
        {
          "indexed": true,
          "name": "newOwner",
          "type": "address"
        }
      ],
      "name": "OwnershipTransferred",
      "type": "event"
    },
    {
      "constant": false,
      "inputs": [
        {
          "name": "addr",
          "type": "address"
        },
        {
          "name": "status",
          "type": "bool"
        }
      ],
      "name": "setEarlyParticipantWhitelist",
      "outputs": [],
      "payable": false,
      "stateMutability": "nonpayable",
      "type": "function"
    },
    {
      "constant": false,
      "inputs": [
        {
          "name": "investor",
          "type": "address"
        }
      ],
      "name": "participateCrowdsaleInvestor",
      "outputs": [],
      "payable": false,
      "stateMutability": "nonpayable",
      "type": "function"
    },
    {
      "constant": false,
      "inputs": [],
      "name": "participateCrowdsaleAll",
      "outputs": [],
      "payable": false,
      "stateMutability": "nonpayable",
      "type": "function"
    },
    {
      "constant": false,
      "inputs": [],
      "name": "refund",
      "outputs": [],
      "payable": false,
      "stateMutability": "nonpayable",
      "type": "function"
    },
    {
      "constant": false,
      "inputs": [
        {
          "name": "_crowdsale",
          "type": "address"
        }
      ],
      "name": "setCrowdsale",
      "outputs": [],
      "payable": false,
      "stateMutability": "nonpayable",
      "type": "function"
    }
  ],
  "bytecode": "0x6080604052602060015534801561001557600080fd5b50604051606080611130833981018060405281019080805190602001909291908051906020019092919080519060200190929190505050336000806101000a81548173ffffffffffffffffffffffffffffffffffffffff021916908373ffffffffffffffffffffffffffffffffffffffff160217905550826000806101000a81548173ffffffffffffffffffffffffffffffffffffffff021916908373ffffffffffffffffffffffffffffffffffffffff160217905550600082141515156100dc57600080fd5b600081141515156100ec57600080fd5b80600781905550816006819055505050506110248061010c6000396000f3006080604052600436106100e6576000357c0100000000000000000000000000000000000000000000000000000000900463ffffffff1680631540fe22146103d957806324ae84cc1461040457806327e235e3146104475780633feb5f2b1461049e578063483a20b21461050b57806358bad3eb1461054e578063590e1ae31461059d5780636962b010146105b45780636a34480b146105df5780638da5cb5b1461060a5780639c1e03a014610661578063b8e3e6da146106b8578063cb11526d146106cf578063cb16e6d0146106fe578063d7e64c0014610759578063f2fde38b14610784575b600080600260003373ffffffffffffffffffffffffffffffffffffffff1673ffffffffffffffffffffffffffffffffffffffff16815260200190815260200160002060009054906101000a900460ff16151561014157600080fd5b600860009054906101000a900460ff1615151561015d57600080fd5b3391506000600560008473ffffffffffffffffffffffffffffffffffffffff1673ffffffffffffffffffffffffffffffffffffffff16815260200190815260200160002054119050600560008373ffffffffffffffffffffffffffffffffffffffff1673ffffffffffffffffffffffffffffffffffffffff1681526020019081526020016000205473__SafeMathLib___________________________6366098d4f9091346040518363ffffffff167c0100000000000000000000000000000000000000000000000000000000028152600401808381526020018281526020019250505060206040518083038186803b15801561025957600080fd5b505af415801561026d573d6000803e3d6000fd5b505050506040513d602081101561028357600080fd5b8101908080519060200190929190505050600560008473ffffffffffffffffffffffffffffffffffffffff1673ffffffffffffffffffffffffffffffffffffffff1681526020019081526020016000208190555080151561036a57600154600354111515156102f157600080fd5b60048290806001815401808255809150509060018203906000526020600020016000909192909190916101000a81548173ffffffffffffffffffffffffffffffffffffffff021916908373ffffffffffffffffffffffffffffffffffffffff160217905550506003600081548092919060010191905055505b7fc3f75dfc78f6efac88ad5abb5e606276b903647d97b2a62a1ef89840a658bbc38234604051808373ffffffffffffffffffffffffffffffffffffffff1673ffffffffffffffffffffffffffffffffffffffff1681526020018281526020019250505060405180910390a15050005b3480156103e557600080fd5b506103ee6107c7565b6040518082815260200191505060405180910390f35b34801561041057600080fd5b50610445600480360381019080803573ffffffffffffffffffffffffffffffffffffffff1690602001909291905050506107cd565b005b34801561045357600080fd5b50610488600480360381019080803573ffffffffffffffffffffffffffffffffffffffff1690602001909291905050506109d9565b6040518082815260200191505060405180910390f35b3480156104aa57600080fd5b506104c9600480360381019080803590602001909291905050506109f1565b604051808273ffffffffffffffffffffffffffffffffffffffff1673ffffffffffffffffffffffffffffffffffffffff16815260200191505060405180910390f35b34801561051757600080fd5b5061054c600480360381019080803573ffffffffffffffffffffffffffffffffffffffff169060200190929190505050610a2f565b005b34801561055a57600080fd5b5061059b600480360381019080803573ffffffffffffffffffffffffffffffffffffffff169060200190929190803515159060200190929190505050610ace565b005b3480156105a957600080fd5b506105b2610bf3565b005b3480156105c057600080fd5b506105c9610dae565b6040518082815260200191505060405180910390f35b3480156105eb57600080fd5b506105f4610db4565b6040518082815260200191505060405180910390f35b34801561061657600080fd5b5061061f610dba565b604051808273ffffffffffffffffffffffffffffffffffffffff1673ffffffffffffffffffffffffffffffffffffffff16815260200191505060405180910390f35b34801561066d57600080fd5b50610676610ddf565b604051808273ffffffffffffffffffffffffffffffffffffffff1673ffffffffffffffffffffffffffffffffffffffff16815260200191505060405180910390f35b3480156106c457600080fd5b506106cd610e05565b005b3480156106db57600080fd5b506106e4610e6a565b604051808215151515815260200191505060405180910390f35b34801561070a57600080fd5b5061073f600480360381019080803573ffffffffffffffffffffffffffffffffffffffff169060200190929190505050610e7d565b604051808215151515815260200191505060405180910390f35b34801561076557600080fd5b5061076e610e9d565b6040518082815260200191505060405180910390f35b34801561079057600080fd5b506107c5600480360381019080803573ffffffffffffffffffffffffffffffffffffffff169060200190929190505050610ea3565b005b60075481565b600080600860019054906101000a900473ffffffffffffffffffffffffffffffffffffffff1673ffffffffffffffffffffffffffffffffffffffff161415151561081657600080fd5b6001600860006101000a81548160ff0219169083151502179055506000600560008473ffffffffffffffffffffffffffffffffffffffff1673ffffffffffffffffffffffffffffffffffffffff1681526020019081526020016000205411156109d557600560008373ffffffffffffffffffffffffffffffffffffffff1673ffffffffffffffffffffffffffffffffffffffff168152602001908152602001600020549050600560008373ffffffffffffffffffffffffffffffffffffffff1673ffffffffffffffffffffffffffffffffffffffff16815260200190815260200160002060009055600860019054906101000a900473ffffffffffffffffffffffffffffffffffffffff1673ffffffffffffffffffffffffffffffffffffffff166303f9c79382846040518363ffffffff167c0100000000000000000000000000000000000000000000000000000000028152600401808273ffffffffffffffffffffffffffffffffffffffff1673ffffffffffffffffffffffffffffffffffffffff1681526020019150506000604051808303818588803b1580156109bb57600080fd5b505af11580156109cf573d6000803e3d6000fd5b50505050505b5050565b60056020528060005260406000206000915090505481565b600481815481101515610a0057fe5b906000526020600020016000915054906101000a900473ffffffffffffffffffffffffffffffffffffffff1681565b6000809054906101000a900473ffffffffffffffffffffffffffffffffffffffff1673ffffffffffffffffffffffffffffffffffffffff163373ffffffffffffffffffffffffffffffffffffffff16141515610a8a57600080fd5b80600860016101000a81548173ffffffffffffffffffffffffffffffffffffffff021916908373ffffffffffffffffffffffffffffffffffffffff16021790555050565b6000809054906101000a900473ffffffffffffffffffffffffffffffffffffffff1673ffffffffffffffffffffffffffffffffffffffff163373ffffffffffffffffffffffffffffffffffffffff16141515610b2957600080fd5b80600260008473ffffffffffffffffffffffffffffffffffffffff1673ffffffffffffffffffffffffffffffffffffffff16815260200190815260200160002060006101000a81548160ff0219169083151502179055507fa54714518c5d275fdcd3d2a461e4858e4e8cb04fb93cd0bca9d6d34115f264408282604051808373ffffffffffffffffffffffffffffffffffffffff1673ffffffffffffffffffffffffffffffffffffffff168152602001821515151581526020019250505060405180910390a15050565b60008060065442111515610c0657600080fd5b6001600860006101000a81548160ff0219169083151502179055503391506000600560008473ffffffffffffffffffffffffffffffffffffffff1673ffffffffffffffffffffffffffffffffffffffff1681526020019081526020016000205414151515610c7357600080fd5b600560008373ffffffffffffffffffffffffffffffffffffffff1673ffffffffffffffffffffffffffffffffffffffff168152602001908152602001600020549050600560008373ffffffffffffffffffffffffffffffffffffffff1673ffffffffffffffffffffffffffffffffffffffff168152602001908152602001600020600090557fd7dee2702d63ad89917b6a4da9981c90c4d24f8c2bdfd64c604ecae57d8d06518282604051808373ffffffffffffffffffffffffffffffffffffffff1673ffffffffffffffffffffffffffffffffffffffff1681526020018281526020019250505060405180910390a18173ffffffffffffffffffffffffffffffffffffffff166108fc829081150290604051600060405180830381858888f19350505050158015610da9573d6000803e3d6000fd5b505050565b60065481565b60015481565b6000809054906101000a900473ffffffffffffffffffffffffffffffffffffffff1681565b600860019054906101000a900473ffffffffffffffffffffffffffffffffffffffff1681565b60008090505b600480549050811015610e6757610e5a600482815481101515610e2a57fe5b9060005260206000200160009054906101000a900473ffffffffffffffffffffffffffffffffffffffff166107cd565b8080600101915050610e0b565b50565b600860009054906101000a900460ff1681565b60026020528060005260406000206000915054906101000a900460ff1681565b60035481565b6000809054906101000a900473ffffffffffffffffffffffffffffffffffffffff1673ffffffffffffffffffffffffffffffffffffffff163373ffffffffffffffffffffffffffffffffffffffff16141515610efe57600080fd5b600073ffffffffffffffffffffffffffffffffffffffff168173ffffffffffffffffffffffffffffffffffffffff1614151515610f3a57600080fd5b8073ffffffffffffffffffffffffffffffffffffffff166000809054906101000a900473ffffffffffffffffffffffffffffffffffffffff1673ffffffffffffffffffffffffffffffffffffffff167f8be0079c531659141344cd1fd0a4f28419497f9722a3daafe3b4186f6b6457e060405160405180910390a3806000806101000a81548173ffffffffffffffffffffffffffffffffffffffff021916908373ffffffffffffffffffffffffffffffffffffffff160217905550505600a165627a7a723058206d3e20ad8fecb3cce8b54d849ddae506256d6829e8338ff063c506087eb92fb80029",
  "source": "pragma solidity ^0.4.23;\n\n\nimport \"./Crowdsale.sol\";\nimport \"./SafeMathLib.sol\";\n\n/**\n * Collect funds from presale investors to be send to the crowdsale smart contract later.\n *\n * - Collect funds from pre-sale investors\n * - Send funds to the crowdsale when it opens\n * - Allow owner to set the crowdsale\n * - Have refund after X days as a safety hatch if the crowdsale doesn't materilize\n *\n */\ncontract PresaleFundCollector is Ownable {\n\n  using SafeMathLib for uint;\n\n  /** How many investors when can carry per a single contract */\n  uint public MAX_INVESTORS = 32;\n    \n  /** Addresses that are allowed to invest even before ICO offical opens. For testing, for ICO partners, etc. */\n  mapping (address => bool) public earlyParticipantWhitelist;\n  \n  /** How many investors we have now */\n  uint public investorCount;\n\n  /** Who are our investors (iterable) */\n  address[] public investors;\n\n  /** How much they have invested */\n  mapping(address => uint) public balances;\n\n  /** When our refund freeze is over (UNIX timestamp) */\n  uint public freezeEndsAt;\n\n  /** What is the minimum buy in */\n  uint public weiMinimumLimit;\n\n  /** Have we begun to move funds */\n  bool public moving;\n\n  /** Our ICO contract where we will move the funds */\n  Crowdsale public crowdsale;\n\n  event Invested(address investor, uint value);\n  event Refunded(address investor, uint value);\n  event Whitelisted(address addr, bool status);\n  /**\n   * Create presale contract where lock up period is given days\n   */\n  constructor(address _owner, uint _freezeEndsAt, uint _weiMinimumLimit) public{\n\n    owner = _owner;\n\n    // Give argument\n    require(_freezeEndsAt != 0);\n\n    // Give argument\n    require(_weiMinimumLimit != 0);\n    \n    weiMinimumLimit = _weiMinimumLimit;\n    freezeEndsAt = _freezeEndsAt;\n  }\n\n  /**\n   * Participate to a presale.\n   */\n  //function invest() public payable {\n  function() public payable {  \n    // Whitelisted address can only invest\n    require(earlyParticipantWhitelist[msg.sender]);\n\n    // Cannot invest anymore through crowdsale when moving has begun\n    require(!moving);\n\n    address investor = msg.sender;\n\n    bool existing = balances[investor] > 0;\n\n    balances[investor] = balances[investor].plus(msg.value);\n\n    // Need to fulfill minimum limit\n    //require(balances[investor] > weiMinimumLimit);\n\n    // This is a new investor\n    if(!existing) {\n      // Limit number of investors to prevent too long loops\n      require(investorCount <= MAX_INVESTORS);\n\n      investors.push(investor);\n      investorCount++;\n    }\n\n    emit Invested(investor, msg.value);\n  }\n  \n   /**\n   * Allow addresses to do early participation.\n   *\n   */\n  function setEarlyParticipantWhitelist(address addr, bool status) onlyOwner public {\n    earlyParticipantWhitelist[addr] = status;\n    emit Whitelisted(addr, status);\n  }\n\n  /**\n   * Load funds to the crowdsale for a single investor.\n   */\n  function participateCrowdsaleInvestor(address investor) public {\n\n    // Crowdsale not yet set\n    require(address(crowdsale) != 0);\n\n    moving = true;\n\n    if(balances[investor] > 0) {\n      uint amount = balances[investor];\n      delete balances[investor];\n      crowdsale.invest.value(amount)(investor);\n    }\n  }\n\n  /**\n   * Load funds to the crowdsale for all investor.\n   *\n   */\n  function participateCrowdsaleAll() public {\n    // We might hit a max gas limit in this loop,\n    // and in this case you can simply call participateCrowdsaleInvestor() for all investors\n    for(uint i=0; i < investors.length; i++) {\n      participateCrowdsaleInvestor(investors[i]);\n    }\n  }\n\n  /**\n   * ICO never happened. Allow refund.\n   */\n  function refund() public {\n\n    // Trying to ask refund too soon\n    require(now > freezeEndsAt);\n\n    // We have started to move funds\n    moving = true;\n\n    address investor = msg.sender;\n    require(balances[investor] != 0);\n    uint amount = balances[investor];\n    delete balances[investor];\n    emit Refunded(investor, amount);\n    investor.transfer(amount);\n  }\n\n  /**\n   * Set the target crowdsale where we will move presale funds when the crowdsale opens.\n   */\n  function setCrowdsale(Crowdsale _crowdsale) public onlyOwner {\n    crowdsale = _crowdsale;\n  }\n\n  /** Explicitly call function from your wallet. */\n  // function() public payable {\n  //   revert();\n  // }\n}\n",
  "sourcePath": "/truffle/contracts/PresaleFundCollector.sol",
  "compiler": {
    "name": "solc",
    "version": "0.4.24+commit.e67f0147.Emscripten.clang"
  },
  "schemaVersion": "2.0.1",
  "updatedAt": "2018-06-26T21:10:08.281Z"
}